:020000040000fa
:080000000002040000000000f2
:020000040000fa
:04000800c80200002a
:020000040000fa
:04000c00c802000026
:020000040000fa
:04001000c802000022
:020000040000fa
:04001400c80200001e
:020000040000fa
:04001800c80200001a
:020000040000fa
:04001c00c802000016
:020000040000fa
:04002000c802000012
:020000040000fa
:04002400c80200000e
:020000040000fa
:04002800c80200000a
:020000040000fa
:04002c00c802000006
:020000040000fa
:04003000c802000002
:020000040000fa
:04003400c8020000fe
:020000040000fa
:04003800c8020000fa
:020000040000fa
:04003c00c8020000f6
:020000040000fa
:04004000c8020000f2
:020000040000fa
:04004400c8020000ee
:020000040000fa
:04004800c8020000ea
:020000040000fa
:04004c00c8020000e6
:020000040000fa
:04005000c8020000e2
:020000040000fa
:04005400c8020000de
:020000040000fa
:04005800c8020000da
:020000040000fa
:04005c00c8020000d6
:020000040000fa
:04006000c8020000d2
:020000040000fa
:04006400c8020000ce
:020000040000fa
:04006800c8020000ca
:020000040000fa
:04006c00c8020000c6
:020000040000fa
:04007000c8020000c2
:020000040000fa
:04007400c8020000be
:020000040000fa
:04007800c8020000ba
:020000040000fa
:04007c00c8020000b6
:020000040000fa
:04008000c8020000b2
:020000040000fa
:04008400c8020000ae
:020000040000fa
:04008800c8020000aa
:020000040000fa
:04008c00c8020000a6
:020000040000fa
:04009000c8020000a2
:020000040000fa
:04009400c80200009e
:020000040000fa
:04009800c80200009a
:020000040000fa
:04009c00c802000096
:020000040000fa
:0400a000c802000092
:020000040000fa
:0400a400c80200008e
:020000040000fa
:0400a800c80200008a
:020000040000fa
:0400ac00c802000086
:020000040000fa
:0400b000c802000082
:020000040000fa
:0400b400c80200007e
:020000040000fa
:0400b800c80200007a
:020000040000fa
:0400bc00c802000076
:020000040000fa
:0400c000c802000072
:020000040000fa
:0400c400c80200006e
:020000040000fa
:0400c800c80200006a
:020000040000fa
:0400cc00c802000066
:020000040000fa
:0400d000c802000062
:020000040000fa
:0400d400c80200005e
:020000040000fa
:0400d800c80200005a
:020000040000fa
:0400dc00c802000056
:020000040000fa
:0400e000c802000052
:020000040000fa
:0400e400c80200004e
:020000040000fa
:0400e800c80200004a
:020000040000fa
:0400ec00c802000046
:020000040000fa
:0400f000c802000042
:020000040000fa
:0400f400c80200003e
:020000040000fa
:0400f800c80200003a
:020000040000fa
:0400fc00c802000036
:020000040000fa
:04010000c802000031
:020000040000fa
:04010400c80200002d
:020000040000fa
:04010800c802000029
:020000040000fa
:04010c00c802000025
:020000040000fa
:04011000c802000021
:020000040000fa
:04011400c80200001d
:020000040000fa
:04011800c802000019
:020000040000fa
:04011c00c802000015
:020000040000fa
:04012000c802000011
:020000040000fa
:04012400c80200000d
:020000040000fa
:04012800c802000009
:020000040000fa
:04012c00c802000005
:020000040000fa
:04013000c802000001
:020000040000fa
:04013400c8020000fd
:020000040000fa
:04013800c8020000f9
:020000040000fa
:04013c00c8020000f5
:020000040000fa
:04014000c8020000f1
:020000040000fa
:04014400c8020000ed
:020000040000fa
:04014800c8020000e9
:020000040000fa
:04020800c802000028
:020000040000fa
:04020c00c802000024
:020000040000fa
:04021000c802000020
:020000040000fa
:04021400c80200001c
:020000040000fa
:04021800c802000018
:020000040000fa
:04021c00c802000014
:020000040000fa
:04022000c802000010
:020000040000fa
:04022400c80200000c
:020000040000fa
:04022800c802000008
:020000040000fa
:04022c00c802000004
:020000040000fa
:04023000c802000000
:020000040000fa
:04023400c8020000fc
:020000040000fa
:04023800c8020000f8
:020000040000fa
:04023c00c8020000f4
:020000040000fa
:04024000c8020000f0
:020000040000fa
:04024400c8020000ec
:020000040000fa
:04024800c8020000e8
:020000040000fa
:04024c00c8020000e4
:020000040000fa
:04025000c8020000e0
:020000040000fa
:04025400c8020000dc
:020000040000fa
:04025800c8020000d8
:020000040000fa
:04025c00c8020000d4
:020000040000fa
:04026000c8020000d0
:020000040000fa
:04026400c8020000cc
:020000040000fa
:04026800c8020000c8
:020000040000fa
:04026c00c8020000c4
:020000040000fa
:04027000c8020000c0
:020000040000fa
:04027400c8020000bc
:020000040000fa
:04027800c8020000b8
:020000040000fa
:04027c00c8020000b4
:020000040000fa
:04028000c8020000b0
:020000040000fa
:04028400c8020000ac
:020000040000fa
:04028800c8020000a8
:020000040000fa
:04028c00c8020000a4
:020000040000fa
:04029000c8020000a0
:020000040000fa
:04029400c80200009c
:020000040000fa
:04029800c802000098
:020000040000fa
:04029c00c802000094
:020000040000fa
:0402a000c802000090
:020000040000fa
:0402a400c80200008c
:020000040000fa
:0402a800c802000088
:020000040000fa
:0402ac00c802000084
:020000040000fa
:0402b000c802000080
:020000040000fa
:0402b400c80200007c
:020000040000fa
:0402b800c802000078
:020000040000fa
:0402bc00c802000074
:020000040000fa
:0402c000c802000070
:020000040000fa
:0402c400c80200006c
:020000040000fa
:0402c800c802000068
:020000040000fa
:0402cc00c802000064
:020000040000fa
:0402d000c802000060
:020000040000fa
:0402d400c80200005c
:020000040000fa
:0402d800c802000058
:020000040000fa
:0402dc00c802000054
:020000040000fa
:0402e000c802000050
:020000040000fa
:0402e400c80200004c
:020000040000fa
:0402e800c802000048
:020000040000fa
:0402ec00c802000044
:020000040000fa
:0402f000c802000040
:020000040000fa
:0402f400c80200003c
:020000040000fa
:0402f800c802000038
:020000040000fa
:0402fc00c802000034
:020000040000fa
:04030000c80200002f
:020000040000fa
:04030400c80200002b
:020000040000fa
:04030800c802000027
:020000040000fa
:04030c00c802000023
:020000040000fa
:04031000c80200001f
:020000040000fa
:04031400c80200001b
:020000040000fa
:04031800c802000017
:020000040000fa
:04031c00c802000013
:020000040000fa
:04032000c80200000f
:020000040000fa
:04032400c80200000b
:020000040000fa
:04032800c802000007
:020000040000fa
:04032c00c802000003
:020000040000fa
:04033000c8020000ff
:020000040000fa
:04033400c8020000fb
:020000040000fa
:04033800c8020000f7
:020000040000fa
:04033c00c8020000f3
:020000040000fa
:04034000c8020000ef
:020000040000fa
:04034400c8020000eb
:020000040000fa
:04034800c8020000e7
:020000040000fa
:100400000f8020000e7f22000e01880000000000f7
:10041000000020000000e000020032000001200087
:1004200020028800140007005b0007000000e000c5
:1004300003003a0000002000010020000200370005
:100440000000200001002000810f70000100320038
:1004500014000700000020000000e000020032004d
:1004600000000200000000000c0602000000000076
:100470000040da000000fe004440a9000000200017
:100480000000e0000300320000002000a00188000e
:100490004440a800000006008a1f78008b1f7800e7
:1004a0000000060091018800800478000000eb0045
:1004b0001a003700e284440032a0b4009905ba0063
:1004c000e284440032a0b4009906ba00e2844400f9
:1004d00032a0b4000006eb00476fde00fd07b2005b
:1004e000636ce10003003a00ebff07000000eb0043
:1004f0000a003700606ce10004003a00005deb0088
:100500008b05e900fdff3e00040037006168e10053
:10051000010032000086eb000b00070019c7ba008b
:100520001905ba000e04e00003003a000a00e000da
:10053000e0ff3a0000000600fe07b2009e018800be
:100540008a047800f5ff3700395dba008b05e900b1
:100550000c003200295dba008b05e900080032006a
:100560000c00e00003003a00e284440032a0b40032
:10057000f5ff370019ddba008b05e900faff3a00f4
:100580008904e800e184440032a0b40000000600c1
:0c0590000040da000000fe000000050042
:020000040000fa
:10059c000000fa00601980000080eb0060198800f0
:1005ac0041168000f0ff200000806000401688009b
:1005bc0000168000f000b300001688006840a80008
:1005cc006860a8006bc0a8006ba0a8000080fa00af
:1005dc00000006000000fa0003000700820007007c
:1005ec000080fa00000006000000fa00611680008e
:1005fc0000002f000100700060168800cd82a90059
:10060c000000000000000000000000001016800038
:10061c00610060000000e00002003a0010002000c1
:10062c006f00370010168000620060000000e000d0
:10063c0002003a00200020006900370010168000ec
:10064c00640060000000e00002003a00300020006e
:10065c006300370010168000680060000000e000a6
:10066c0002003a00400020005d003700cd82a80057
:10067c00cda2a90000000000000000000000000056
:10068c0010168000610060000000e00002003a00db
:10069c0050002000520037001016800062006000ed
:1006ac000000e00002003a00600020004c0037001f
:1006bc0010168000640060000000e00002003a00a8
:1006cc0070002000460037001016800068006000a3
:1006dc000000e00002003a008000200040003700db
:1006ec00cda2a800cdc2a9000000000000000000af
:1006fc000000000010168000610060000000e000a7
:10070c0002003a00900020003500370010168000df
:10071c00620060000000e00002003a00a00020002f
:10072c002f00370010168000640060000000e0000d
:10073c0002003a00b000200029003700101680009b
:10074c00680060000000e00002003a00c0002000d9
:10075c0023003700cdc2a800cde2a90000000000a4
:10076c000000000000000000101680006100600016
:10077c000000e00002003a00d00020001800370012
:10078c0010168000620060000000e00002003a00d9
:10079c00e00020001200370010168000640060009a
:1007ac000000e00002003a00f00020000c003700ce
:1007bc0010168000680060000000e00002003a00a3
:1007cc000001200006003700cde2a8006116800071
:1007dc0000002f0001007000601688000000eb0084
:1007ec000080fa00000006000200fa00000f7800fa
:1007fc001e0078006101b8000080eb008080eb00e7
:10080c000200400083804800f2002000030020001a
:10081c00820f5000838f580031003e0000600100b1
:10082c000f0037001000370011003700120037009e
:10083c00130037001400370015003700160037007e
:10084c001700370018003700190037001a0037005e
:10085c001b0037001c0037001d0037001e0037003e
:10086c0010c4b3001f00370030c3b3001d003700a5
:10087c0020c3b3001b00370010c3b30019003700ae
:10088c0020c6b3001700370060c3b3001500370053
:10089c0050c3b3001300370040c3b300110037003e
:1008ac0030c4b3000f00370090c3b3000d00370005
:1008bc0080c3b3000b00370070c3b30009003700ce
:1008cc0040c6b3000700370050c4b3000500370022
:1008dc0000c3b3000300370060c4b300010037004d
:1008ec0000c2b3000080fa00000006000000fa000d
:1008fc000080eb00601988004116800030002f004a
:10090c000080600040168800cd42a900cd62a9008d
:10091c0061168000c03f2000010070006016880046
:10092c000080fa00000006000400fa00004f780076
:10093c001107980061168000c03f20000100700074
:10094c00601688001e0090000040780000c0ea008d
:10095c00614060000080fb00610060004a00dd0027
:10096c006116800001a0a1000100700060168800d3
:10097c001e00900000407800614060000080fb0089
:10098c00610060004b00dd006116800001b0a10029
:10099c00010070006016880000c3b3009e40780010
:1009ac0080cf500005003a0061168000c0c02f00b7
:1009bc0000806000601688008600370010c3b3000a
:1009cc009e40780080cf500005003a0061168000f0
:1009dc00c0e72f0000806000601688007d003700a3
:1009ec0020c3b3009e40780080cf500005003a0031
:1009fc006116800040c92f000080600060168800de
:100a0c007400370030c3b3009e40780080cf500094
:100a1c0005003a006116800040c32f000080600082
:100a2c00601688006b00370040c3b3009e4078000e
:100a3c0080cf500005003a006116800040e62f0080
:100a4c0000806000601688006200370050c3b3005d
:100a5c009e40780080cf500005003a00611680005f
:100a6c0040d22f00008060006016880059003700cb
:100a7c0060c3b3009e40780080cf500005003a0060
:100a8c006116800040d02f00008060006016880046
:100a9c005000370070c3b3009e40780080cf5000e8
:100aac0005003a0061168000c0c72f00008060006e
:100abc00601688004700370080c3b3009e40780062
:100acc0080cf500005003a006116800040c02f0016
:100adc0000806000601688003e00370090c3b300b1
:100aec009e40780080cf500005003a0061168000cf
:100afc0040c22f000080600060168800350037006f
:100b0c0010c4b3009e40780080cf500005003a001e
:100b1c006116800040c42f000080600060168800c1
:100b2c002c00370020c6b3009e40780080cf5000c8
:100b3c0005003a006116800040f02f000080600034
:100b4c00601688002300370030c4b3009e40780044
:100b5c0080cf500005003a0061168000c0d82f00ed
:100b6c0000806000601688001a00370040c6b30091
:100b7c009e40780080cf500005003a00611680003e
:100b8c0040e12f00008060006016880011003700e3
:100b9c0050c4b3009e40780080cf500005003a004e
:100bac006116800040d82f0000806000601688001d
:100bbc000800370060c4b3009e40780080cf50001e
:100bcc0004003a006116800040dc2f0000806000b9
:100bdc00601688000080fa00000006000400fa008d
:100bec00100798009e009000010f7800020037005b
:100bfc00350007001e0fe9001e0078000000e00021
:100c0c00fbff3c000080fa00000006000400fa0024
:100c1c0036ff07005efe070000c2b300004f7800ed
:100c2c0000c2b300104798006afe070020479800e6
:100c3c00ae40900000c2b30080cf500006003200de
:100c4c009e409000014f7800ae40900011479800f4
:100c5c0060092000e1ff0700110020001e40780011
:100c6c0031ff070020002000dcff07008000eb00b4
:100c7c001e4090002cff070020002000d7ff07002b
:100c8c00e9ff3700c422ec0003000900000000005b
:100c9c00c422ef000500090000000000000006005f
:100cac00c422ec000800090000000000c422ef0080
:100cbc0000000000000000000000060039060900da
:100ccc000000000000000600793e09000000000052
:040cdc00000006000e
:020000040000fa
:020000040001f9
:0457f8000ff90000a5
:020000040000fa
:020000040001f9
:0457fc007f3f0000eb
:00000001FF
