:020000040000fa
:080000000002040000000000f2
:020000040000fa
:0400080036030000bb
:020000040000fa
:04000c0036030000b7
:020000040000fa
:0400100036030000b3
:020000040000fa
:0400140036030000af
:020000040000fa
:0400180036030000ab
:020000040000fa
:04001c0036030000a7
:020000040000fa
:0400200036030000a3
:020000040000fa
:04002400360300009f
:020000040000fa
:04002800360300009b
:020000040000fa
:04002c00e8020000e6
:020000040000fa
:040030003603000093
:020000040000fa
:04003400360300008f
:020000040000fa
:04003800360300008b
:020000040000fa
:04003c003603000087
:020000040000fa
:040040003603000083
:020000040000fa
:04004400c8020000ee
:020000040000fa
:04004800360300007b
:020000040000fa
:04004c003603000077
:020000040000fa
:040050003603000073
:020000040000fa
:04005400360300006f
:020000040000fa
:04005800360300006b
:020000040000fa
:04005c003603000067
:020000040000fa
:040060003603000063
:020000040000fa
:04006400360300005f
:020000040000fa
:04006800360300005b
:020000040000fa
:04006c003603000057
:020000040000fa
:040070003603000053
:020000040000fa
:04007400360300004f
:020000040000fa
:04007800360300004b
:020000040000fa
:04007c003603000047
:020000040000fa
:040080003603000043
:020000040000fa
:04008400360300003f
:020000040000fa
:04008800360300003b
:020000040000fa
:04008c003603000037
:020000040000fa
:040090003603000033
:020000040000fa
:04009400360300002f
:020000040000fa
:04009800360300002b
:020000040000fa
:04009c003603000027
:020000040000fa
:0400a0003603000023
:020000040000fa
:0400a400360300001f
:020000040000fa
:0400a800360300001b
:020000040000fa
:0400ac003603000017
:020000040000fa
:0400b0003603000013
:020000040000fa
:0400b400360300000f
:020000040000fa
:0400b800360300000b
:020000040000fa
:0400bc003603000007
:020000040000fa
:0400c0003603000003
:020000040000fa
:0400c40036030000ff
:020000040000fa
:0400c80036030000fb
:020000040000fa
:0400cc0036030000f7
:020000040000fa
:0400d00036030000f3
:020000040000fa
:0400d40036030000ef
:020000040000fa
:0400d80036030000eb
:020000040000fa
:0400dc0036030000e7
:020000040000fa
:0400e00036030000e3
:020000040000fa
:0400e40036030000df
:020000040000fa
:0400e80036030000db
:020000040000fa
:0400ec0036030000d7
:020000040000fa
:0400f00036030000d3
:020000040000fa
:0400f40036030000cf
:020000040000fa
:0400f80036030000cb
:020000040000fa
:0400fc0036030000c7
:020000040000fa
:0401000036030000c2
:020000040000fa
:0401040036030000be
:020000040000fa
:0401080036030000ba
:020000040000fa
:04010c0036030000b6
:020000040000fa
:0401100036030000b2
:020000040000fa
:0401140036030000ae
:020000040000fa
:0401180036030000aa
:020000040000fa
:04011c0036030000a6
:020000040000fa
:0401200036030000a2
:020000040000fa
:04012400360300009e
:020000040000fa
:04012800360300009a
:020000040000fa
:04012c003603000096
:020000040000fa
:040130003603000092
:020000040000fa
:04013400360300008e
:020000040000fa
:04013800360300008a
:020000040000fa
:04013c003603000086
:020000040000fa
:040140003603000082
:020000040000fa
:04014400360300007e
:020000040000fa
:04014800360300007a
:020000040000fa
:0402080036030000b9
:020000040000fa
:04020c0036030000b5
:020000040000fa
:0402100036030000b1
:020000040000fa
:0402140036030000ad
:020000040000fa
:0402180036030000a9
:020000040000fa
:04021c0036030000a5
:020000040000fa
:0402200036030000a1
:020000040000fa
:04022400360300009d
:020000040000fa
:040228003603000099
:020000040000fa
:04022c00e8020000e4
:020000040000fa
:040230003603000091
:020000040000fa
:04023400360300008d
:020000040000fa
:040238003603000089
:020000040000fa
:04023c003603000085
:020000040000fa
:040240003603000081
:020000040000fa
:04024400c8020000ec
:020000040000fa
:040248003603000079
:020000040000fa
:04024c003603000075
:020000040000fa
:040250003603000071
:020000040000fa
:04025400360300006d
:020000040000fa
:040258003603000069
:020000040000fa
:04025c003603000065
:020000040000fa
:040260003603000061
:020000040000fa
:04026400360300005d
:020000040000fa
:040268003603000059
:020000040000fa
:04026c003603000055
:020000040000fa
:040270003603000051
:020000040000fa
:04027400360300004d
:020000040000fa
:040278003603000049
:020000040000fa
:04027c003603000045
:020000040000fa
:040280003603000041
:020000040000fa
:04028400360300003d
:020000040000fa
:040288003603000039
:020000040000fa
:04028c003603000035
:020000040000fa
:040290003603000031
:020000040000fa
:04029400360300002d
:020000040000fa
:040298003603000029
:020000040000fa
:04029c003603000025
:020000040000fa
:0402a0003603000021
:020000040000fa
:0402a400360300001d
:020000040000fa
:0402a8003603000019
:020000040000fa
:0402ac003603000015
:020000040000fa
:0402b0003603000011
:020000040000fa
:0402b400360300000d
:020000040000fa
:0402b8003603000009
:020000040000fa
:0402bc003603000005
:020000040000fa
:0402c0003603000001
:020000040000fa
:0402c40036030000fd
:020000040000fa
:0402c80036030000f9
:020000040000fa
:0402cc0036030000f5
:020000040000fa
:0402d00036030000f1
:020000040000fa
:0402d40036030000ed
:020000040000fa
:0402d80036030000e9
:020000040000fa
:0402dc0036030000e5
:020000040000fa
:0402e00036030000e1
:020000040000fa
:0402e40036030000dd
:020000040000fa
:0402e80036030000d9
:020000040000fa
:0402ec0036030000d5
:020000040000fa
:0402f00036030000d1
:020000040000fa
:0402f40036030000cd
:020000040000fa
:0402f80036030000c9
:020000040000fa
:0402fc0036030000c5
:020000040000fa
:0403000036030000c0
:020000040000fa
:0403040036030000bc
:020000040000fa
:0403080036030000b8
:020000040000fa
:04030c0036030000b4
:020000040000fa
:0403100036030000b0
:020000040000fa
:0403140036030000ac
:020000040000fa
:0403180036030000a8
:020000040000fa
:04031c0036030000a4
:020000040000fa
:0403200036030000a0
:020000040000fa
:04032400360300009c
:020000040000fa
:040328003603000098
:020000040000fa
:04032c003603000094
:020000040000fa
:040330003603000090
:020000040000fa
:04033400360300008c
:020000040000fa
:040338003603000088
:020000040000fa
:04033c003603000084
:020000040000fa
:040340003603000080
:020000040000fa
:04034400360300007c
:020000040000fa
:040348003603000078
:020000040000fa
:10040000ef8120000e7f22000e0188000000000016
:10041000000020000000e000020032000001200087
:100420002002880014000700920007000000e0008e
:1004300003003a00005720000100200002003700ae
:100440000000200001002000810f70000100320038
:1004500014000700000020000000e000020032004d
:1004600000000200000000009404020000000000f0
:100470000040da000000fe004440a9000000200017
:100480000000e0000300320000002000a00188000e
:100490004440a800000006008a1f78008b1f7800e7
:1004a0000000060091018800800478000000eb0045
:1004b0001a003700e284440032a0b4009905ba0063
:1004c000e284440032a0b4009906ba00e2844400f9
:1004d00032a0b4000006eb00476fde00fd07b2005b
:1004e000636ce10003003a00ebff07000000eb0043
:1004f0000a003700606ce10004003a00005deb0088
:100500008b05e900fdff3e00040037006168e10053
:10051000010032000086eb000b00070019c7ba008b
:100520001905ba000e04e00003003a000a00e000da
:10053000e0ff3a0000000600fe07b2009e018800be
:100540008a047800f5ff3700395dba008b05e900b1
:100550000c003200295dba008b05e900080032006a
:100560000c00e00003003a00e284440032a0b40032
:10057000f5ff370019ddba008b05e900faff3a00f4
:100580008904e800e184440032a0b40000000600c1
:10059000809fbe003400f80000002000a001880009
:1005a0000000fa0084e0a9000040800011408000b3
:1005b00061004000e0804800004088001140880051
:1005c0000080fa003400f9004f00be000040060031
:1005d0003600f800809fbe00829fbe00849fbe0050
:1005e000869fbe00889fbe003400f80000002000f7
:1005f000a00188000400fa008420a900000a8000fd
:100600006103b800600880000000e8006101b800e4
:100610000040800011408000009ab9000402780078
:10062000028cb90088027800050242000010b80070
:100630000102420084007800001f430001974b0034
:100640001e00be00830007000080fa003400f9009d
:100650004f04be004f03be004f02be004f01be005c
:100660004f00be003600f900004006000040da00ee
:080670000000fe00000005007f
:020000040000fa
:100678000400fa00100798009e009000010f78000f
:1006880002003700110107001e0fe9001e00780064
:100698000000e000fbff3c000080fa0000000600bc
:1006a8000000fa00c8c2a900113a8000f00b20002f
:1006b8000081600060042000710520002374200080
:1006c8008049780081497800824978003136800075
:1006d80000fe2f00008060002001b3003036880043
:1006e800103a8000000178000260a0006004200039
:1006f8007105200023742000804978008149780022
:10070800824978008421ef008461a800210c8000d0
:1007180080ff2f00008060006000b300200c88007c
:100728001221ef0091088000f0fc2f00008060008b
:100738000040a000900888000a21ef00f0c32900bb
:100748007008880013e1a8000080fa000000060085
:100758000200fa00000f78001e007800000c8800e4
:100768000080fa00000006000000fa00213a80002c
:10077800f08f2f0000806000203a88000080eb0096
:10078800601988000080fa00000006000000fa00e6
:10079800c902a8006ac0a8001021ef0081088000e3
:1007a80000032000010070008008880030422f00fc
:1007b800600888000621ef0094e0a80084e0a90002
:1007c80011e1a800113a8000f00b200000816000c0
:1007d80060042000710520002374200080497800ff
:1007e80081497800824978007134800000fe2f002a
:1007f800008060000030a00070348800103a80004b
:10080800000178000260a00060042000710520004b
:100818002374200080497800814978008249780053
:100828004221ef0042e1a800110a800080ff2f005a
:10083800008060000010a000100a88008420a90031
:100848009420a8000080fa00000006000400fa00c6
:10085800008fbe0040408000e50f500012003200bb
:1008680020408000c200dd00a08020000080400001
:100878003e1878002e107800204080008000e800a4
:100888005000200000017800110009008200d80003
:100898008000fd0020408800404080000000e80003
:1008a8004040880001003700000000000080fa0086
:1008b800000006000400fa00404080000000e0004c
:1008c80003003a000080eb008080eb001200370044
:1008d80030408000c200dd00a08020000080400081
:1008e800301f780020177800304080008000e80032
:1008f8005000200000017800110009008200d80093
:100908008000fd0030408800404080000000e90081
:10091800404088001e00be000080fa00000006006b
:100928001400fa00889fbe008fff07005cff0700d5
:1009380096ff07006000b80040079800510798002c
:100948006000b800008fbe006000b8002007980063
:100958003107980000e120007dff07000100370003
:1009680000000000d3ff0700600798007107980097
:100978006e009000fe009000e00f5000e08f5800dd
:10098800200034001e01be0042079800530798005b
:100998002e019000be019000028fbe006e019000f3
:1009a800fe01900022079800330798004e0090003f
:1009b800de0090003e011000ae81180020a1270043
:1009c80001002000800f5100818f59000d003c006c
:1009d8002e009000be0090003e015000ae815800ed
:1009e80020a1270001002000800f5100818f5900ad
:1009f80004003c00800c20001dff0700f09520003b
:100a080053ff0700300880006103b80060088000c9
:100a18000000e8006101b80000408000114080003b
:100a2800009ab90004027800028cb90088027800a4
:100a3800050242000010b80001024200840078005c
:100a48000600400087804800000f9800110f9800aa
:100a58000e0990009e0990002e009000be009000a4
:100a6800000151008181590070842e00110020007e
:100a7800800f5100818f5900b9ff3400f0e0200049
:100a880033ff0700b7ff3700c422ec00030009005a
:100a980000000000c422ef0005000900000000006b
:100aa80000000600c422ec00080009000000000055
:100ab800c422ef0000000000000000000000060053
:100ac800390609000000000000000600793e090010
:080ad800000000000000060010
:020000040000fa
:100ae0000a080000140000000000000000080000d8
:0c0af0000a0000000000000000000000f0
:020000040000fa
:020000040001f9
:0457f8000ff90000a5
:020000040000fa
:020000040001f9
:0457fc007f3f0000eb
:00000001FF
