:020000040000fa
:080000000002040000000000f2
:020000040000fa
:04000800c80200002a
:020000040000fa
:04000c00c802000026
:020000040000fa
:04001000c802000022
:020000040000fa
:04001400c80200001e
:020000040000fa
:04001800c80200001a
:020000040000fa
:04001c00c802000016
:020000040000fa
:04002000c802000012
:020000040000fa
:04002400c80200000e
:020000040000fa
:04002800c80200000a
:020000040000fa
:04002c00c802000006
:020000040000fa
:04003000c802000002
:020000040000fa
:04003400c8020000fe
:020000040000fa
:04003800c8020000fa
:020000040000fa
:04003c00c8020000f6
:020000040000fa
:04004000c8020000f2
:020000040000fa
:04004400c8020000ee
:020000040000fa
:04004800c8020000ea
:020000040000fa
:04004c00c8020000e6
:020000040000fa
:04005000c8020000e2
:020000040000fa
:04005400c8020000de
:020000040000fa
:04005800c8020000da
:020000040000fa
:04005c00c8020000d6
:020000040000fa
:04006000c8020000d2
:020000040000fa
:04006400c8020000ce
:020000040000fa
:04006800c8020000ca
:020000040000fa
:04006c00c8020000c6
:020000040000fa
:04007000c8020000c2
:020000040000fa
:04007400c8020000be
:020000040000fa
:04007800c8020000ba
:020000040000fa
:04007c00c8020000b6
:020000040000fa
:04008000c8020000b2
:020000040000fa
:04008400c8020000ae
:020000040000fa
:04008800c8020000aa
:020000040000fa
:04008c00c8020000a6
:020000040000fa
:04009000c8020000a2
:020000040000fa
:04009400c80200009e
:020000040000fa
:04009800c80200009a
:020000040000fa
:04009c00c802000096
:020000040000fa
:0400a000c802000092
:020000040000fa
:0400a400c80200008e
:020000040000fa
:0400a800c80200008a
:020000040000fa
:0400ac00c802000086
:020000040000fa
:0400b000c802000082
:020000040000fa
:0400b400c80200007e
:020000040000fa
:0400b800c80200007a
:020000040000fa
:0400bc00c802000076
:020000040000fa
:0400c000c802000072
:020000040000fa
:0400c400c80200006e
:020000040000fa
:0400c800c80200006a
:020000040000fa
:0400cc00c802000066
:020000040000fa
:0400d000c802000062
:020000040000fa
:0400d400c80200005e
:020000040000fa
:0400d800c80200005a
:020000040000fa
:0400dc00c802000056
:020000040000fa
:0400e000c802000052
:020000040000fa
:0400e400c80200004e
:020000040000fa
:0400e800c80200004a
:020000040000fa
:0400ec00c802000046
:020000040000fa
:0400f000c802000042
:020000040000fa
:0400f400c80200003e
:020000040000fa
:0400f800c80200003a
:020000040000fa
:0400fc00c802000036
:020000040000fa
:04010000c802000031
:020000040000fa
:04010400c80200002d
:020000040000fa
:04010800c802000029
:020000040000fa
:04010c00c802000025
:020000040000fa
:04011000c802000021
:020000040000fa
:04011400c80200001d
:020000040000fa
:04011800c802000019
:020000040000fa
:04011c00c802000015
:020000040000fa
:04012000c802000011
:020000040000fa
:04012400c80200000d
:020000040000fa
:04012800c802000009
:020000040000fa
:04012c00c802000005
:020000040000fa
:04013000c802000001
:020000040000fa
:04013400c8020000fd
:020000040000fa
:04013800c8020000f9
:020000040000fa
:04013c00c8020000f5
:020000040000fa
:04014000c8020000f1
:020000040000fa
:04014400c8020000ed
:020000040000fa
:04014800c8020000e9
:020000040000fa
:04020800c802000028
:020000040000fa
:04020c00c802000024
:020000040000fa
:04021000c802000020
:020000040000fa
:04021400c80200001c
:020000040000fa
:04021800c802000018
:020000040000fa
:04021c00c802000014
:020000040000fa
:04022000c802000010
:020000040000fa
:04022400c80200000c
:020000040000fa
:04022800c802000008
:020000040000fa
:04022c00c802000004
:020000040000fa
:04023000c802000000
:020000040000fa
:04023400c8020000fc
:020000040000fa
:04023800c8020000f8
:020000040000fa
:04023c00c8020000f4
:020000040000fa
:04024000c8020000f0
:020000040000fa
:04024400c8020000ec
:020000040000fa
:04024800c8020000e8
:020000040000fa
:04024c00c8020000e4
:020000040000fa
:04025000c8020000e0
:020000040000fa
:04025400c8020000dc
:020000040000fa
:04025800c8020000d8
:020000040000fa
:04025c00c8020000d4
:020000040000fa
:04026000c8020000d0
:020000040000fa
:04026400c8020000cc
:020000040000fa
:04026800c8020000c8
:020000040000fa
:04026c00c8020000c4
:020000040000fa
:04027000c8020000c0
:020000040000fa
:04027400c8020000bc
:020000040000fa
:04027800c8020000b8
:020000040000fa
:04027c00c8020000b4
:020000040000fa
:04028000c8020000b0
:020000040000fa
:04028400c8020000ac
:020000040000fa
:04028800c8020000a8
:020000040000fa
:04028c00c8020000a4
:020000040000fa
:04029000c8020000a0
:020000040000fa
:04029400c80200009c
:020000040000fa
:04029800c802000098
:020000040000fa
:04029c00c802000094
:020000040000fa
:0402a000c802000090
:020000040000fa
:0402a400c80200008c
:020000040000fa
:0402a800c802000088
:020000040000fa
:0402ac00c802000084
:020000040000fa
:0402b000c802000080
:020000040000fa
:0402b400c80200007c
:020000040000fa
:0402b800c802000078
:020000040000fa
:0402bc00c802000074
:020000040000fa
:0402c000c802000070
:020000040000fa
:0402c400c80200006c
:020000040000fa
:0402c800c802000068
:020000040000fa
:0402cc00c802000064
:020000040000fa
:0402d000c802000060
:020000040000fa
:0402d400c80200005c
:020000040000fa
:0402d800c802000058
:020000040000fa
:0402dc00c802000054
:020000040000fa
:0402e000c802000050
:020000040000fa
:0402e400c80200004c
:020000040000fa
:0402e800c802000048
:020000040000fa
:0402ec00c802000044
:020000040000fa
:0402f000c802000040
:020000040000fa
:0402f400c80200003c
:020000040000fa
:0402f800c802000038
:020000040000fa
:0402fc00c802000034
:020000040000fa
:04030000c80200002f
:020000040000fa
:04030400c80200002b
:020000040000fa
:04030800c802000027
:020000040000fa
:04030c00c802000023
:020000040000fa
:04031000c80200001f
:020000040000fa
:04031400c80200001b
:020000040000fa
:04031800c802000017
:020000040000fa
:04031c00c802000013
:020000040000fa
:04032000c80200000f
:020000040000fa
:04032400c80200000b
:020000040000fa
:04032800c802000007
:020000040000fa
:04032c00c802000003
:020000040000fa
:04033000c8020000ff
:020000040000fa
:04033400c8020000fb
:020000040000fa
:04033800c8020000f7
:020000040000fa
:04033c00c8020000f3
:020000040000fa
:04034000c8020000ef
:020000040000fa
:04034400c8020000eb
:020000040000fa
:04034800c8020000e7
:020000040000fa
:100400002f8020000e7f22000e01880000000000d7
:10041000000020000000e000020032000001200087
:1004200020028800140007005b0007000000e000c5
:1004300003003a00a0522000010020000200370013
:100440000000200001002000810f70000100320038
:1004500014000700000020000000e000020032004d
:100460000000020000000000f8040200000000008c
:100470000040da000000fe004440a900e001200036
:100480000000e0000300320000002000a00188000e
:100490004440a800000006008a1f78008b1f7800e7
:1004a0000000060091018800800478000000eb0045
:1004b0001a003700e284440032a0b4009905ba0063
:1004c000e284440032a0b4009906ba00e2844400f9
:1004d00032a0b4000006eb00476fde00fd07b2005b
:1004e000636ce10003003a00ebff07000000eb0043
:1004f0000a003700606ce10004003a00005deb0088
:100500008b05e900fdff3e00040037006168e10053
:10051000010032000086eb000b00070019c7ba008b
:100520001905ba000e04e00003003a000a00e000da
:10053000e0ff3a0000000600fe07b2009e018800be
:100540008a047800f5ff3700395dba008b05e900b1
:100550000c003200295dba008b05e900080032006a
:100560000c00e00003003a00e284440032a0b40032
:10057000f5ff370019ddba008b05e900faff3a00f4
:100580008904e800e184440032a0b40000000600c1
:0c0590000040da000000fe000000050042
:020000040000fa
:10059c00576500006c6300006f6d00006520000063
:1005ac00476f000070680000657200007321000046
:1005bc002020000020000000546f000020450000a7
:0c05cc0045320000333600003100000012
:020000040000fa
:1005d8000400fa00100798009e009000010f7800b0
:1005e80002003700160107001e0fe9001e00780000
:1005f8000000e000fbff3c000080fa00000006005d
:100608000200fa00004f78000602a800000000006f
:1006180030108000610060000000e000fcff3a003c
:100628008620a90080072000101088000000000024
:1006380030048000620060000000e000fcff32002f
:100648004110800000002400008060000000e000ed
:10065800f7ff3a008620a9000222ef000000000000
:1006680030048000620060000000e000fcff3200ff
:100678004110800000002400008060000000e000bd
:10068800f7ff3a008620a9001e00fb001010880022
:100698000000000030048000620060000000e000fc
:1006a800fcff320041108000000024000080600040
:1006b8000000e000f7ff3a008620a9000642a800e3
:1006c8000000000030108000640060000000e000be
:1006d800fcff3a000080fa00000006000200fa0061
:1006e800004f7800cca2a8000602a8000000000075
:1006f80030108000610060000000e000fcff3a005c
:100708008620a90080072000101088000000000043
:1007180030048000620060000000e000fcff32004e
:100728004110800000002400008060000000e0000c
:10073800f7ff3a008620a900000420001010880066
:100748000000000030048000620060000000e0004b
:10075800fcff32004110800000002400008060008f
:100768000000e000f7ff3a008620a9001e00fb0009
:100778001010880000000000300480006200600053
:100788000000e000fcff320041108000000024005f
:10079800008060000000e000f7ff3a008620a90012
:1007a8000642a800000000003010800064006000cd
:1007b8000000e000fcff3a00cca2a9000080fa008b
:1007c800000006000400fa0020479800314798000e
:1007d8003e409000c500dd002e40900000c0400063
:1007e800004f78001e4078000074a00084ff0700c6
:1007f8000080fa00000006000000fa00a0c3b30061
:100808007fff0700c8c2a900cca2a800ccc2a900db
:10081800100020006eff0700ccc2a8008002200054
:100828006bff0700a0c3b30075ff070090c0b300bb
:1008380073ff070060c0b30071ff0700e0c1b30099
:100848006fff070090c3b3006dff0700b0c1b3008e
:100858006bff0700e0c6b30069ff070060c5b3007f
:1008680067ff0700a0c7b30065ff070080c3b30098
:1008780063ff0700f0c0b30061ff0700cca2a90026
:10088800a0c3b3005eff070090c0b3005cff070081
:10089800a0c1b3005aff0700c0c3b30058ff070048
:1008a80010c0b30056ff07002000200048ff0700d3
:1008b8000080fa00000006000200fa00000f78002d
:1008c800040037001e0078001040780083ff0700fe
:1008d8001e0fe8001e007800104078000004e000b9
:1008e800f8ff3a000080fa00000006000000fa0055
:1008f800213a8000f08f2f0000806000203a8800a5
:100908000080eb0060198800c8a2a900cca2a90049
:1009180007e2a900d00920002010880007e2a800fb
:100928008620a9000080fa00000006000600fa00f0
:10093800e02c28001007980010c0b30030ff070013
:100948002000200022ff070011c0b3000040eb0088
:100958009cff0700202e2800d7ff07000000eb00af
:10096800000f780012003700004080009e00400011
:100978003001200000017800110009008200d80031
:100988008000fd00200798001e00780000407800d5
:100998008040eb008bff07002e0090009e00900027
:1009a80000804000104078004cff07001e0fe80050
:1009b8001e007800f20f5000ebff3400004080006a
:1009c8000000e8000040880000408000f20f50005e
:1009d800010034000028ef00c0122000fcfe0700d0
:1009e8000080fa00000006000000fa00bfff0700c0
:1009f80081ff0700cdff0700feff3700c422ec008f
:100a08000300090000000000c422ef0005000900ef
:100a18000000000000000600c422ec0008000900e5
:100a280000000000c422ef000000000000000000e9
:100a3800000006003906090000000000000006005a
:0c0a4800793e09000000000000000600dc
:020000040000fa
:100a54000008000002000000000000000000000088
:020000040000fa
:020000040001f9
:0457f8000ff90000a5
:020000040000fa
:020000040001f9
:0457fc007f3f0000eb
:00000001FF
